{
  "contractName": "Fundraiser",
  "abi": [
    {
      "inputs": [
        {
          "internalType": "string",
          "name": "_name",
          "type": "string"
        },
        {
          "internalType": "string",
          "name": "_url",
          "type": "string"
        },
        {
          "internalType": "string",
          "name": "_imageURL",
          "type": "string"
        },
        {
          "internalType": "string",
          "name": "_description",
          "type": "string"
        },
        {
          "internalType": "address payable",
          "name": "_beneficiary",
          "type": "address"
        },
        {
          "internalType": "address",
          "name": "_custodian",
          "type": "address"
        }
      ],
      "stateMutability": "nonpayable",
      "type": "constructor"
    },
    {
      "anonymous": false,
      "inputs": [
        {
          "indexed": true,
          "internalType": "address",
          "name": "donor",
          "type": "address"
        },
        {
          "indexed": false,
          "internalType": "uint256",
          "name": "value",
          "type": "uint256"
        }
      ],
      "name": "DonationReceived",
      "type": "event"
    },
    {
      "anonymous": false,
      "inputs": [
        {
          "indexed": true,
          "internalType": "address",
          "name": "previousOwner",
          "type": "address"
        },
        {
          "indexed": true,
          "internalType": "address",
          "name": "newOwner",
          "type": "address"
        }
      ],
      "name": "OwnershipTransferred",
      "type": "event"
    },
    {
      "anonymous": false,
      "inputs": [
        {
          "indexed": false,
          "internalType": "uint256",
          "name": "amount",
          "type": "uint256"
        }
      ],
      "name": "Withdraw",
      "type": "event"
    },
    {
      "inputs": [],
      "name": "beneficiary",
      "outputs": [
        {
          "internalType": "address payable",
          "name": "",
          "type": "address"
        }
      ],
      "stateMutability": "view",
      "type": "function"
    },
    {
      "inputs": [],
      "name": "description",
      "outputs": [
        {
          "internalType": "string",
          "name": "",
          "type": "string"
        }
      ],
      "stateMutability": "view",
      "type": "function"
    },
    {
      "inputs": [],
      "name": "donationsCount",
      "outputs": [
        {
          "internalType": "uint256",
          "name": "",
          "type": "uint256"
        }
      ],
      "stateMutability": "view",
      "type": "function"
    },
    {
      "inputs": [],
      "name": "imageURL",
      "outputs": [
        {
          "internalType": "string",
          "name": "",
          "type": "string"
        }
      ],
      "stateMutability": "view",
      "type": "function"
    },
    {
      "inputs": [],
      "name": "name",
      "outputs": [
        {
          "internalType": "string",
          "name": "",
          "type": "string"
        }
      ],
      "stateMutability": "view",
      "type": "function"
    },
    {
      "inputs": [],
      "name": "owner",
      "outputs": [
        {
          "internalType": "address",
          "name": "",
          "type": "address"
        }
      ],
      "stateMutability": "view",
      "type": "function"
    },
    {
      "inputs": [],
      "name": "renounceOwnership",
      "outputs": [],
      "stateMutability": "nonpayable",
      "type": "function"
    },
    {
      "inputs": [],
      "name": "totalDonations",
      "outputs": [
        {
          "internalType": "uint256",
          "name": "",
          "type": "uint256"
        }
      ],
      "stateMutability": "view",
      "type": "function"
    },
    {
      "inputs": [
        {
          "internalType": "address",
          "name": "newOwner",
          "type": "address"
        }
      ],
      "name": "transferOwnership",
      "outputs": [],
      "stateMutability": "nonpayable",
      "type": "function"
    },
    {
      "inputs": [],
      "name": "url",
      "outputs": [
        {
          "internalType": "string",
          "name": "",
          "type": "string"
        }
      ],
      "stateMutability": "view",
      "type": "function"
    },
    {
      "stateMutability": "payable",
      "type": "receive"
    },
    {
      "inputs": [
        {
          "internalType": "address payable",
          "name": "_beneficiary",
          "type": "address"
        }
      ],
      "name": "setBeneficiary",
      "outputs": [],
      "stateMutability": "nonpayable",
      "type": "function"
    },
    {
      "inputs": [],
      "name": "myDonationsCount",
      "outputs": [
        {
          "internalType": "uint256",
          "name": "",
          "type": "uint256"
        }
      ],
      "stateMutability": "view",
      "type": "function"
    },
    {
      "inputs": [],
      "name": "donate",
      "outputs": [],
      "stateMutability": "payable",
      "type": "function"
    },
    {
      "inputs": [],
      "name": "multipleReturns",
      "outputs": [
        {
          "internalType": "uint256",
          "name": "",
          "type": "uint256"
        },
        {
          "internalType": "uint256",
          "name": "",
          "type": "uint256"
        }
      ],
      "stateMutability": "pure",
      "type": "function"
    },
    {
      "inputs": [],
      "name": "multipleReturnsWithNames",
      "outputs": [
        {
          "internalType": "uint256",
          "name": "a",
          "type": "uint256"
        },
        {
          "internalType": "uint256",
          "name": "b",
          "type": "uint256"
        }
      ],
      "stateMutability": "pure",
      "type": "function"
    },
    {
      "inputs": [],
      "name": "myDonations",
      "outputs": [
        {
          "internalType": "uint256[]",
          "name": "values",
          "type": "uint256[]"
        },
        {
          "internalType": "uint256[]",
          "name": "dates",
          "type": "uint256[]"
        }
      ],
      "stateMutability": "view",
      "type": "function"
    },
    {
      "inputs": [],
      "name": "withDraw",
      "outputs": [],
      "stateMutability": "nonpayable",
      "type": "function"
    }
  ],
  "bytecode": "0x60806040523480156200001157600080fd5b5060405162001d3a38038062001d3a8339818101604052810190620000379190620004e9565b600062000049620001a960201b60201c565b9050806000806101000a81548173ffffffffffffffffffffffffffffffffffffffff021916908373ffffffffffffffffffffffffffffffffffffffff1602179055508073ffffffffffffffffffffffffffffffffffffffff16600073ffffffffffffffffffffffffffffffffffffffff167f8be0079c531659141344cd1fd0a4f28419497f9722a3daafe3b4186f6b6457e060405160405180910390a3508560049080519060200190620000ff92919062000399565b5084600590805190602001906200011892919062000399565b5083600690805190602001906200013192919062000399565b5082600790805190602001906200014a92919062000399565b5081600860006101000a81548173ffffffffffffffffffffffffffffffffffffffff021916908373ffffffffffffffffffffffffffffffffffffffff1602179055506200019d81620001b160201b60201c565b5050505050506200088f565b600033905090565b620001c1620001a960201b60201c565b73ffffffffffffffffffffffffffffffffffffffff16620001e76200037060201b60201c565b73ffffffffffffffffffffffffffffffffffffffff161462000240576040517f08c379a00000000000000000000000000000000000000000000000000000000081526004016200023790620006af565b60405180910390fd5b600073ffffffffffffffffffffffffffffffffffffffff168173ffffffffffffffffffffffffffffffffffffffff161415620002b3576040517f08c379a0000000000000000000000000000000000000000000000000000000008152600401620002aa906200068d565b60405180910390fd5b8073ffffffffffffffffffffffffffffffffffffffff1660008054906101000a900473ffffffffffffffffffffffffffffffffffffffff1673ffffffffffffffffffffffffffffffffffffffff167f8be0079c531659141344cd1fd0a4f28419497f9722a3daafe3b4186f6b6457e060405160405180910390a3806000806101000a81548173ffffffffffffffffffffffffffffffffffffffff021916908373ffffffffffffffffffffffffffffffffffffffff16021790555050565b60008060009054906101000a900473ffffffffffffffffffffffffffffffffffffffff16905090565b828054620003a790620007c7565b90600052602060002090601f016020900481019282620003cb576000855562000417565b82601f10620003e657805160ff191683800117855562000417565b8280016001018555821562000417579182015b8281111562000416578251825591602001919060010190620003f9565b5b5090506200042691906200042a565b5090565b5b80821115620004455760008160009055506001016200042b565b5090565b6000620004606200045a8462000705565b620006d1565b9050828152602081018484840111156200047957600080fd5b6200048684828562000791565b509392505050565b6000815190506200049f816200085b565b92915050565b600081519050620004b68162000875565b92915050565b600082601f830112620004ce57600080fd5b8151620004e084826020860162000449565b91505092915050565b60008060008060008060c087890312156200050357600080fd5b600087015167ffffffffffffffff8111156200051e57600080fd5b6200052c89828a01620004bc565b965050602087015167ffffffffffffffff8111156200054a57600080fd5b6200055889828a01620004bc565b955050604087015167ffffffffffffffff8111156200057657600080fd5b6200058489828a01620004bc565b945050606087015167ffffffffffffffff811115620005a257600080fd5b620005b089828a01620004bc565b9350506080620005c389828a01620004a5565b92505060a0620005d689828a016200048e565b9150509295509295509295565b6000620005f260268362000738565b91507f4f776e61626c653a206e6577206f776e657220697320746865207a65726f206160008301527f64647265737300000000000000000000000000000000000000000000000000006020830152604082019050919050565b60006200065a60208362000738565b91507f4f776e61626c653a2063616c6c6572206973206e6f7420746865206f776e65726000830152602082019050919050565b60006020820190508181036000830152620006a881620005e3565b9050919050565b60006020820190508181036000830152620006ca816200064b565b9050919050565b6000604051905081810181811067ffffffffffffffff82111715620006fb57620006fa6200082c565b5b8060405250919050565b600067ffffffffffffffff8211156200072357620007226200082c565b5b601f19601f8301169050602081019050919050565b600082825260208201905092915050565b6000620007568262000771565b9050919050565b60006200076a8262000771565b9050919050565b600073ffffffffffffffffffffffffffffffffffffffff82169050919050565b60005b83811015620007b157808201518184015260208101905062000794565b83811115620007c1576000848401525b50505050565b60006002820490506001821680620007e057607f821691505b60208210811415620007f757620007f6620007fd565b5b50919050565b7f4e487b7100000000000000000000000000000000000000000000000000000000600052602260045260246000fd5b7f4e487b7100000000000000000000000000000000000000000000000000000000600052604160045260246000fd5b620008668162000749565b81146200087257600080fd5b50565b62000880816200075d565b81146200088c57600080fd5b50565b61149b806200089f6000396000f3fe6080604052600436106101025760003560e01c80635600f04f11610095578063b90497e011610064578063b90497e01461031d578063d40a8f1214610348578063de2ed89314610374578063ed88c68e1461039f578063f2fde38b146103a95761013c565b80635600f04f14610285578063715018a6146102b05780637284e416146102c75780638da5cb5b146102f25761013c565b80631c31f710116100d15780631c31f710146101da5780631f5225951461020357806323fd1c8d1461022e57806338af3eed1461025a5761013c565b80630180b97c1461014157806306fdde031461016c5780630fdb1c10146101975780631a57f7b4146101ae5761013c565b3661013c5761011c346001546103d290919063ffffffff16565b600181905550600260008154809291906101359061137f565b9190505550005b600080fd5b34801561014d57600080fd5b506101566103e8565b60405161016391906111dd565b60405180910390f35b34801561017857600080fd5b50610181610432565b60405161018e919061117b565b60405180910390f35b3480156101a357600080fd5b506101ac6104c0565b005b3480156101ba57600080fd5b506101c36105e4565b6040516101d1929190611144565b60405180910390f35b3480156101e657600080fd5b5061020160048036038101906101fc9190610f54565b610817565b005b34801561020f57600080fd5b506102186108d7565b60405161022591906111dd565b60405180910390f35b34801561023a57600080fd5b506102436108dd565b6040516102519291906111f8565b60405180910390f35b34801561026657600080fd5b5061026f6108ec565b60405161027c9190611129565b60405180910390f35b34801561029157600080fd5b5061029a610912565b6040516102a7919061117b565b60405180910390f35b3480156102bc57600080fd5b506102c56109a0565b005b3480156102d357600080fd5b506102dc610ada565b6040516102e9919061117b565b60405180910390f35b3480156102fe57600080fd5b50610307610b68565b604051610314919061110e565b60405180910390f35b34801561032957600080fd5b50610332610b91565b60405161033f919061117b565b60405180910390f35b34801561035457600080fd5b5061035d610c1f565b60405161036b9291906111f8565b60405180910390f35b34801561038057600080fd5b50610389610c2e565b60405161039691906111dd565b60405180910390f35b6103a7610c34565b005b3480156103b557600080fd5b506103d060048036038101906103cb9190610f2b565b610d50565b005b600081836103e09190611276565b905092915050565b6000600360003373ffffffffffffffffffffffffffffffffffffffff1673ffffffffffffffffffffffffffffffffffffffff16815260200190815260200160002080549050905090565b6004805461043f9061134d565b80601f016020809104026020016040519081016040528092919081815260200182805461046b9061134d565b80156104b85780601f1061048d576101008083540402835291602001916104b8565b820191906000526020600020905b81548152906001019060200180831161049b57829003601f168201915b505050505081565b6104c8610ef9565b73ffffffffffffffffffffffffffffffffffffffff166104e6610b68565b73ffffffffffffffffffffffffffffffffffffffff161461053c576040517f08c379a0000000000000000000000000000000000000000000000000000000008152600401610533906111bd565b60405180910390fd5b6000479050600860009054906101000a900473ffffffffffffffffffffffffffffffffffffffff1673ffffffffffffffffffffffffffffffffffffffff166108fc829081150290604051600060405180830381858888f193505050501580156105a9573d6000803e3d6000fd5b507f5b6b431d4476a211bb7d41c20d1aab9ae2321deee0d20be3d9fc9b1093fa6e3d816040516105d991906111dd565b60405180910390a150565b60608060006105f16103e8565b90508067ffffffffffffffff811115610633577f4e487b7100000000000000000000000000000000000000000000000000000000600052604160045260246000fd5b6040519080825280602002602001820160405280156106615781602001602082028036833780820191505090505b5092508067ffffffffffffffff8111156106a4577f4e487b7100000000000000000000000000000000000000000000000000000000600052604160045260246000fd5b6040519080825280602002602001820160405280156106d25781602001602082028036833780820191505090505b50915060005b81811015610811576000600360003373ffffffffffffffffffffffffffffffffffffffff1673ffffffffffffffffffffffffffffffffffffffff1681526020019081526020016000208281548110610759577f4e487b7100000000000000000000000000000000000000000000000000000000600052603260045260246000fd5b9060005260206000209060020201905080600001548583815181106107a7577f4e487b7100000000000000000000000000000000000000000000000000000000600052603260045260246000fd5b60200260200101818152505080600101548483815181106107f1577f4e487b7100000000000000000000000000000000000000000000000000000000600052603260045260246000fd5b6020026020010181815250505080806108099061137f565b9150506106d8565b50509091565b61081f610ef9565b73ffffffffffffffffffffffffffffffffffffffff1661083d610b68565b73ffffffffffffffffffffffffffffffffffffffff1614610893576040517f08c379a000000000000000000000000000000000000000000000000000000000815260040161088a906111bd565b60405180910390fd5b80600860006101000a81548173ffffffffffffffffffffffffffffffffffffffff021916908373ffffffffffffffffffffffffffffffffffffffff16021790555050565b60025481565b60008060019150600290509091565b600860009054906101000a900473ffffffffffffffffffffffffffffffffffffffff1681565b6005805461091f9061134d565b80601f016020809104026020016040519081016040528092919081815260200182805461094b9061134d565b80156109985780601f1061096d57610100808354040283529160200191610998565b820191906000526020600020905b81548152906001019060200180831161097b57829003601f168201915b505050505081565b6109a8610ef9565b73ffffffffffffffffffffffffffffffffffffffff166109c6610b68565b73ffffffffffffffffffffffffffffffffffffffff1614610a1c576040517f08c379a0000000000000000000000000000000000000000000000000000000008152600401610a13906111bd565b60405180910390fd5b600073ffffffffffffffffffffffffffffffffffffffff1660008054906101000a900473ffffffffffffffffffffffffffffffffffffffff1673ffffffffffffffffffffffffffffffffffffffff167f8be0079c531659141344cd1fd0a4f28419497f9722a3daafe3b4186f6b6457e060405160405180910390a360008060006101000a81548173ffffffffffffffffffffffffffffffffffffffff021916908373ffffffffffffffffffffffffffffffffffffffff160217905550565b60078054610ae79061134d565b80601f0160208091040260200160405190810160405280929190818152602001828054610b139061134d565b8015610b605780601f10610b3557610100808354040283529160200191610b60565b820191906000526020600020905b815481529060010190602001808311610b4357829003601f168201915b505050505081565b60008060009054906101000a900473ffffffffffffffffffffffffffffffffffffffff16905090565b60068054610b9e9061134d565b80601f0160208091040260200160405190810160405280929190818152602001828054610bca9061134d565b8015610c175780601f10610bec57610100808354040283529160200191610c17565b820191906000526020600020905b815481529060010190602001808311610bfa57829003601f168201915b505050505081565b60008060016002915091509091565b60015481565b60006040518060400160405280348152602001428152509050600360003373ffffffffffffffffffffffffffffffffffffffff1673ffffffffffffffffffffffffffffffffffffffff16815260200190815260200160002081908060018154018082558091505060019003906000526020600020906002020160009091909190915060008201518160000155602082015181600101555050610ce1346001546103d290919063ffffffff16565b60018190555060026000815480929190610cfa9061137f565b91905055503373ffffffffffffffffffffffffffffffffffffffff167f264f630d9efa0d07053a31163641d9fcc0adafc9d9e76f1c37c2ce3a558d2c5234604051610d4591906111dd565b60405180910390a250565b610d58610ef9565b73ffffffffffffffffffffffffffffffffffffffff16610d76610b68565b73ffffffffffffffffffffffffffffffffffffffff1614610dcc576040517f08c379a0000000000000000000000000000000000000000000000000000000008152600401610dc3906111bd565b60405180910390fd5b600073ffffffffffffffffffffffffffffffffffffffff168173ffffffffffffffffffffffffffffffffffffffff161415610e3c576040517f08c379a0000000000000000000000000000000000000000000000000000000008152600401610e339061119d565b60405180910390fd5b8073ffffffffffffffffffffffffffffffffffffffff1660008054906101000a900473ffffffffffffffffffffffffffffffffffffffff1673ffffffffffffffffffffffffffffffffffffffff167f8be0079c531659141344cd1fd0a4f28419497f9722a3daafe3b4186f6b6457e060405160405180910390a3806000806101000a81548173ffffffffffffffffffffffffffffffffffffffff021916908373ffffffffffffffffffffffffffffffffffffffff16021790555050565b600033905090565b600081359050610f1081611437565b92915050565b600081359050610f258161144e565b92915050565b600060208284031215610f3d57600080fd5b6000610f4b84828501610f01565b91505092915050565b600060208284031215610f6657600080fd5b6000610f7484828501610f16565b91505092915050565b6000610f8983836110f0565b60208301905092915050565b610f9e816112de565b82525050565b610fad816112cc565b82525050565b6000610fbe82611231565b610fc88185611254565b9350610fd383611221565b8060005b83811015611004578151610feb8882610f7d565b9750610ff683611247565b925050600181019050610fd7565b5085935050505092915050565b600061101c8261123c565b6110268185611265565b935061103681856020860161131a565b61103f81611426565b840191505092915050565b6000611057602683611265565b91507f4f776e61626c653a206e6577206f776e657220697320746865207a65726f206160008301527f64647265737300000000000000000000000000000000000000000000000000006020830152604082019050919050565b60006110bd602083611265565b91507f4f776e61626c653a2063616c6c6572206973206e6f7420746865206f776e65726000830152602082019050919050565b6110f981611310565b82525050565b61110881611310565b82525050565b60006020820190506111236000830184610fa4565b92915050565b600060208201905061113e6000830184610f95565b92915050565b6000604082019050818103600083015261115e8185610fb3565b905081810360208301526111728184610fb3565b90509392505050565b600060208201905081810360008301526111958184611011565b905092915050565b600060208201905081810360008301526111b68161104a565b9050919050565b600060208201905081810360008301526111d6816110b0565b9050919050565b60006020820190506111f260008301846110ff565b92915050565b600060408201905061120d60008301856110ff565b61121a60208301846110ff565b9392505050565b6000819050602082019050919050565b600081519050919050565b600081519050919050565b6000602082019050919050565b600082825260208201905092915050565b600082825260208201905092915050565b600061128182611310565b915061128c83611310565b9250827fffffffffffffffffffffffffffffffffffffffffffffffffffffffffffffffff038211156112c1576112c06113c8565b5b828201905092915050565b60006112d7826112f0565b9050919050565b60006112e9826112f0565b9050919050565b600073ffffffffffffffffffffffffffffffffffffffff82169050919050565b6000819050919050565b60005b8381101561133857808201518184015260208101905061131d565b83811115611347576000848401525b50505050565b6000600282049050600182168061136557607f821691505b60208210811415611379576113786113f7565b5b50919050565b600061138a82611310565b91507fffffffffffffffffffffffffffffffffffffffffffffffffffffffffffffffff8214156113bd576113bc6113c8565b5b600182019050919050565b7f4e487b7100000000000000000000000000000000000000000000000000000000600052601160045260246000fd5b7f4e487b7100000000000000000000000000000000000000000000000000000000600052602260045260246000fd5b6000601f19601f8301169050919050565b611440816112cc565b811461144b57600080fd5b50565b611457816112de565b811461146257600080fd5b5056fea26469706673582212202aed3d25ee11217861b2b0e9d6bf3219f641b127d290181f63f3ab31c1edf92464736f6c63430008000033",
  "immutableReferences": {},
  "source": "// SPDX-License-Identifier: MIT\npragma solidity ^0.8.0;\n\nimport \"@openzeppelin/contracts/access/Ownable.sol\";\nimport \"@openzeppelin/contracts/utils/math/SafeMath.sol\";\n\ncontract Fundraiser is Ownable {\n  using SafeMath for uint256;\n\n  uint256 public totalDonations;\n  uint256 public donationsCount;\n  event DonationReceived(address indexed donor, uint256 value);\n  event Withdraw(uint256 amount);\n\n  struct Donation {\n    uint256 value;\n    uint256 date;\n  }\n  mapping(address => Donation[]) private _donations;\n\n  string public name;\n  string public url;\n  string public imageURL;\n  string public description;\n\n  address payable public beneficiary;\n\n  constructor(\n    string memory _name,\n    string memory _url,\n    string memory _imageURL,\n    string memory _description,\n    address payable _beneficiary,\n    address _custodian\n  ) public {\n    name = _name;\n    url = _url;\n    imageURL = _imageURL;\n    description = _description;\n    beneficiary = _beneficiary;\n    transferOwnership(_custodian);\n  }\n\n  function setBeneficiary(address payable _beneficiary) public onlyOwner {\n    beneficiary = _beneficiary;\n  }\n\n  function myDonationsCount() public view returns (uint256) {\n    return _donations[msg.sender].length;\n  }\n\n  function donate() public payable {\n    Donation memory donation =\n      Donation({ value: msg.value, date: block.timestamp });\n\n    _donations[msg.sender].push(donation);\n    totalDonations = totalDonations.add(msg.value);\n    donationsCount++;\n\n    emit DonationReceived(msg.sender, msg.value);\n  }\n\n  function multipleReturns() public pure returns (uint256, uint256) {\n    return (1, 2);\n  }\n\n  function multipleReturnsWithNames()\n    public\n    pure\n    returns (uint256 a, uint256 b)\n  {\n    a = 1;\n    b = 2;\n    return (a, b);\n  }\n\n  function myDonations()\n    public\n    view\n    returns (uint256[] memory values, uint256[] memory dates)\n  {\n    uint256 count = myDonationsCount();\n    values = new uint256[](count);\n    dates = new uint256[](count);\n\n    for (uint256 i = 0; i < count; i++) {\n      Donation storage donation = _donations[msg.sender][i];\n      values[i] = donation.value;\n      dates[i] = donation.date;\n    }\n\n    return (values, dates);\n  }\n\n  function withDraw() public onlyOwner {\n    uint256 balance = address(this).balance;\n    beneficiary.transfer(balance);\n    emit Withdraw(balance);\n  }\n\n  receive() external payable {\n    totalDonations = totalDonations.add(msg.value);\n    donationsCount++;\n  }\n}\n",
  "sourcePath": "/Users/iimorimasamichi/workspace/learn-ethereum/fundraiser-dapp/contracts/Fundraiser.sol",
  "compiler": {
    "name": "solc",
    "version": "0.8.0+commit.c7dfd78e.Emscripten.clang"
  },
  "schemaVersion": "3.3.4",
  "updatedAt": "2021-04-14T15:32:09.059Z",
  "devdoc": {
    "kind": "dev",
    "methods": {
      "owner()": {
        "details": "Returns the address of the current owner."
      },
      "renounceOwnership()": {
        "details": "Leaves the contract without owner. It will not be possible to call `onlyOwner` functions anymore. Can only be called by the current owner. NOTE: Renouncing ownership will leave the contract without an owner, thereby removing any functionality that is only available to the owner."
      },
      "transferOwnership(address)": {
        "details": "Transfers ownership of the contract to a new account (`newOwner`). Can only be called by the current owner."
      }
    },
    "version": 1
  },
  "userdoc": {
    "kind": "user",
    "methods": {},
    "version": 1
  }
}